{
    "contractName": "ProfileStorage",
    "abi": [
        {
            "inputs": [],
            "name": "getProfile",
            "outputs": [
                {
                    "internalType": "string",
                    "name": "",
                    "type": "string"
                },
                {
                    "internalType": "uint256",
                    "name": "",
                    "type": "uint256"
                },
                {
                    "internalType": "bool",
                    "name": "",
                    "type": "bool"
                }
            ],
            "stateMutability": "view",
            "type": "function"
        },
        {
            "inputs": [
                {
                    "internalType": "string",
                    "name": "_name",
                    "type": "string"
                },
                {
                    "internalType": "uint256",
                    "name": "_age",
                    "type": "uint256"
                },
                {
                    "internalType": "bool",
                    "name": "_isActive",
                    "type": "bool"
                }
            ],
            "name": "setProfile",
            "outputs": [],
            "stateMutability": "nonpayable",
            "type": "function"
        }
    ],
    "bytecode": "608080604052346015576103e3908161001a8239f35b5f80fdfe6080806040526004361015610012575f80fd5b5f3560e01c9081631869165514610123575063d6afc9b114610032575f80fd5b3461011f575f36600319011261011f5760015460ff60025416906040515f925f549061005d82610355565b80845260208401926001811690811561010457506001146100c1575b5061008983608095960384610333565b604051948593606085525180938160608701528686015e5f848401860152602084015215156040830152601f01601f19168101030190f35b94505f80525f51602061038e5f395f51905f525f905b8682106100ee575083016020019450610089610079565b60018160209254838589010152019101906100d7565b60ff1916845250151560051b83016020019450610089610079565b5f80fd5b3461011f57606036600319011261011f5760043567ffffffffffffffff811161011f573660238201121561011f5780600401359067ffffffffffffffff821161031f5761017a601f8301601f191660200184610333565b818352366024838301011161011f57815f92602460209301838601378301015260443580151580910361011f576040516060810181811067ffffffffffffffff82111761031f5760405282815260406020820191602435835201918252825167ffffffffffffffff811161031f576101f25f54610355565b601f81116102b8575b506020601f821160011461024c57819293945f92610241575b50508160011b915f199060031b1c1916175f555b5160015551151560ff8019600254169116176002555f80f35b015190508480610214565b601f198216905f80525f51602061038e5f395f51905f52915f5b8181106102a057509583600195969710610288575b505050811b015f55610228565b01515f1960f88460031b161c1916905584808061027b565b9192602060018192868b015181550194019201610266565b5f8052601f820160051c5f51602061038e5f395f51905f5201906020831061030a575b601f0160051c5f51602061038e5f395f51905f5201905b8181106102ff57506101fb565b5f81556001016102f2565b5f51602061038e5f395f51905f5291506102db565b634e487b7160e01b5f52604160045260245ffd5b90601f8019910116810190811067ffffffffffffffff82111761031f57604052565b90600182811c92168015610383575b602083101461036f57565b634e487b7160e01b5f52602260045260245ffd5b91607f169161036456fe290decd9548b62a8d60345a988386fc84ba6bc95484008f6362f93160ef3e563a264697066735822122030f3c7da3987498075f91e1109de90ee1d90717ec8dca24d358578ddc68c9c0564736f6c634300081d0033",
    "sourcePath": "c:/Users/KRISHNA REDDY/Favorites/Blockchain Solidity/practice2.sol",
    "compiler": {
        "name": "solc",
        "version": "0.8.29+commit.ab55807c"
    },
    "functionHashes": {
        "getProfile()": "d6afc9b1",
        "setProfile(string,uint256,bool)": "18691655"
    },
    "gasEstimates": {
        "creation": {
            "codeDepositCost": "199000",
            "executionCost": "251",
            "totalCost": "199251"
        },
        "external": {
            "getProfile()": "infinite",
            "setProfile(string,uint256,bool)": "infinite"
        }
    }
}